{
  "contractName": "Migrations",
  "abi": [
    {
      "inputs": [],
      "payable": false,
      "stateMutability": "nonpayable",
      "type": "constructor"
    },
    {
      "constant": true,
      "inputs": [],
      "name": "last_completed_migration",
      "outputs": [
        {
          "internalType": "uint256",
          "name": "",
          "type": "uint256"
        }
      ],
      "payable": false,
      "stateMutability": "view",
      "type": "function"
    },
    {
      "constant": false,
      "inputs": [
        {
          "internalType": "uint256",
          "name": "completed",
          "type": "uint256"
        }
      ],
      "name": "setCompleted",
      "outputs": [],
      "payable": false,
      "stateMutability": "nonpayable",
      "type": "function"
    },
    {
      "constant": false,
      "inputs": [
        {
          "internalType": "address",
          "name": "newAddress",
          "type": "address"
        }
      ],
      "name": "upgrade",
      "outputs": [],
      "payable": false,
      "stateMutability": "nonpayable",
      "type": "function"
    }
  ],
  "bytecode": "0x608060405234801561001057600080fd5b50336000806101000a81548173ffffffffffffffffffffffffffffffffffffffff021916908373ffffffffffffffffffffffffffffffffffffffff16021790555061023d806100606000396000f3fe608060405234801561001057600080fd5b50600436106100415760003560e01c80630900f01014610046578063445df0ac1461008a578063fdacd576146100a8575b600080fd5b6100886004803603602081101561005c57600080fd5b81019080803573ffffffffffffffffffffffffffffffffffffffff1690602001909291905050506100d6565b005b6100926101a2565b6040518082815260200191505060405180910390f35b6100d4600480360360208110156100be57600080fd5b81019080803590602001909291905050506101a8565b005b6000809054906101000a900473ffffffffffffffffffffffffffffffffffffffff1673ffffffffffffffffffffffffffffffffffffffff163373ffffffffffffffffffffffffffffffffffffffff16141561019f5760008190508073ffffffffffffffffffffffffffffffffffffffff1663fdacd5766001546040518263ffffffff1660e01b815260040180828152602001915050600060405180830381600087803b15801561018557600080fd5b505af1158015610199573d6000803e3d6000fd5b50505050505b50565b60015481565b6000809054906101000a900473ffffffffffffffffffffffffffffffffffffffff1673ffffffffffffffffffffffffffffffffffffffff163373ffffffffffffffffffffffffffffffffffffffff16141561020557806001819055505b5056fea265627a7a72315820f13d6766571ff8421b431255ee3eb716f2ae70f0bbea2931e5d2c3290c970f7e64736f6c63430005110032",
  "source": "pragma solidity ^0.5.0;\n\ncontract Migrations {\n    address owner;\n    uint public last_completed_migration;\n\n    constructor() public {\n        owner = msg.sender;\n    }\n\n    modifier restricted() {\n        if(msg.sender == owner) _;\n    }\n\n    function setCompleted(uint completed) public restricted {\n        last_completed_migration = completed;\n    }\n\n    function upgrade(address newAddress) public restricted {\n        Migrations upgraded = Migrations(newAddress);\n        upgraded.setCompleted(last_completed_migration);\n    }\n}",
  "sourcePath": "/Users/hassan-mehmood/HassanSpace/Blockchain learning/Create Blockchain with javascript/defi-staking-app-starter/src/contracts/Migrations.sol",
  "compiler": {
    "name": "solc",
    "version": "0.5.17+commit.d19bba13.Emscripten.clang"
  },
  "schemaVersion": "3.4.14",
  "updatedAt": "2023-07-24T10:52:58.739Z",
  "networkType": "ethereum",
  "devdoc": {
    "methods": {}
  },
  "userdoc": {
    "methods": {}
  }
}