{
  "contractName": "Tether",
  "abi": [
    {
      "inputs": [],
      "payable": false,
      "stateMutability": "nonpayable",
      "type": "constructor"
    },
    {
      "anonymous": false,
      "inputs": [
        {
          "indexed": true,
          "internalType": "address",
          "name": "owner",
          "type": "address"
        },
        {
          "indexed": true,
          "internalType": "address",
          "name": "spender",
          "type": "address"
        },
        {
          "indexed": false,
          "internalType": "uint256",
          "name": "value",
          "type": "uint256"
        }
      ],
      "name": "Approval",
      "type": "event"
    },
    {
      "anonymous": false,
      "inputs": [
        {
          "indexed": true,
          "internalType": "address",
          "name": "from",
          "type": "address"
        },
        {
          "indexed": true,
          "internalType": "address",
          "name": "to",
          "type": "address"
        },
        {
          "indexed": false,
          "internalType": "uint256",
          "name": "value",
          "type": "uint256"
        }
      ],
      "name": "Transfer",
      "type": "event"
    },
    {
      "constant": true,
      "inputs": [
        {
          "internalType": "address",
          "name": "",
          "type": "address"
        }
      ],
      "name": "balanceOf",
      "outputs": [
        {
          "internalType": "uint256",
          "name": "",
          "type": "uint256"
        }
      ],
      "payable": false,
      "stateMutability": "view",
      "type": "function"
    },
    {
      "constant": true,
      "inputs": [],
      "name": "decimals",
      "outputs": [
        {
          "internalType": "uint8",
          "name": "",
          "type": "uint8"
        }
      ],
      "payable": false,
      "stateMutability": "view",
      "type": "function"
    },
    {
      "constant": true,
      "inputs": [],
      "name": "name",
      "outputs": [
        {
          "internalType": "string",
          "name": "",
          "type": "string"
        }
      ],
      "payable": false,
      "stateMutability": "view",
      "type": "function"
    },
    {
      "constant": true,
      "inputs": [],
      "name": "symbol",
      "outputs": [
        {
          "internalType": "string",
          "name": "",
          "type": "string"
        }
      ],
      "payable": false,
      "stateMutability": "view",
      "type": "function"
    },
    {
      "constant": true,
      "inputs": [],
      "name": "totalSupply",
      "outputs": [
        {
          "internalType": "uint256",
          "name": "",
          "type": "uint256"
        }
      ],
      "payable": false,
      "stateMutability": "view",
      "type": "function"
    },
    {
      "constant": false,
      "inputs": [
        {
          "internalType": "address",
          "name": "spender",
          "type": "address"
        },
        {
          "internalType": "uint256",
          "name": "value",
          "type": "uint256"
        }
      ],
      "name": "approve",
      "outputs": [
        {
          "internalType": "bool",
          "name": "success",
          "type": "bool"
        }
      ],
      "payable": false,
      "stateMutability": "nonpayable",
      "type": "function"
    },
    {
      "constant": false,
      "inputs": [
        {
          "internalType": "address",
          "name": "to",
          "type": "address"
        },
        {
          "internalType": "uint256",
          "name": "value",
          "type": "uint256"
        }
      ],
      "name": "transfer",
      "outputs": [
        {
          "internalType": "bool",
          "name": "success",
          "type": "bool"
        }
      ],
      "payable": false,
      "stateMutability": "nonpayable",
      "type": "function"
    },
    {
      "constant": false,
      "inputs": [
        {
          "internalType": "address",
          "name": "from",
          "type": "address"
        },
        {
          "internalType": "address",
          "name": "to",
          "type": "address"
        },
        {
          "internalType": "uint256",
          "name": "value",
          "type": "uint256"
        }
      ],
      "name": "transferFrom",
      "outputs": [
        {
          "internalType": "bool",
          "name": "success",
          "type": "bool"
        }
      ],
      "payable": false,
      "stateMutability": "nonpayable",
      "type": "function"
    }
  ],
  "bytecode": "0x60806040526040518060400160405280601181526020017f4d6f636b2054657468657220546f6b656e0000000000000000000000000000008152506000908051906020019061004f92919061011e565b506040518060400160405280600581526020017f6d555344540000000000000000000000000000000000000000000000000000008152506001908051906020019061009b92919061011e565b5069d3c21bcecceda10000006002556018600360006101000a81548160ff021916908360ff1602179055503480156100d257600080fd5b50600254600460003373ffffffffffffffffffffffffffffffffffffffff1673ffffffffffffffffffffffffffffffffffffffff168152602001908152602001600020819055506101c3565b828054600181600116156101000203166002900490600052602060002090601f016020900481019282601f1061015f57805160ff191683800117855561018d565b8280016001018555821561018d579182015b8281111561018c578251825591602001919060010190610171565b5b50905061019a919061019e565b5090565b6101c091905b808211156101bc5760008160009055506001016101a4565b5090565b90565b610a26806101d26000396000f3fe608060405234801561001057600080fd5b50600436106100885760003560e01c8063313ce5671161005b578063313ce5671461021a57806370a082311461023e57806395d89b4114610296578063a9059cbb1461031957610088565b806306fdde031461008d578063095ea7b31461011057806318160ddd1461017657806323b872dd14610194575b600080fd5b61009561037f565b6040518080602001828103825283818151815260200191508051906020019080838360005b838110156100d55780820151818401526020810190506100ba565b50505050905090810190601f1680156101025780820380516001836020036101000a031916815260200191505b509250505060405180910390f35b61015c6004803603604081101561012657600080fd5b81019080803573ffffffffffffffffffffffffffffffffffffffff1690602001909291908035906020019092919050505061041d565b604051808215151515815260200191505060405180910390f35b61017e61050f565b6040518082815260200191505060405180910390f35b610200600480360360608110156101aa57600080fd5b81019080803573ffffffffffffffffffffffffffffffffffffffff169060200190929190803573ffffffffffffffffffffffffffffffffffffffff16906020019092919080359060200190929190505050610515565b604051808215151515815260200191505060405180910390f35b610222610764565b604051808260ff1660ff16815260200191505060405180910390f35b6102806004803603602081101561025457600080fd5b81019080803573ffffffffffffffffffffffffffffffffffffffff169060200190929190505050610777565b6040518082815260200191505060405180910390f35b61029e61078f565b6040518080602001828103825283818151815260200191508051906020019080838360005b838110156102de5780820151818401526020810190506102c3565b50505050905090810190601f16801561030b5780820380516001836020036101000a031916815260200191505b509250505060405180910390f35b6103656004803603604081101561032f57600080fd5b81019080803573ffffffffffffffffffffffffffffffffffffffff1690602001909291908035906020019092919050505061082d565b604051808215151515815260200191505060405180910390f35b60008054600181600116156101000203166002900480601f0160208091040260200160405190810160405280929190818152602001828054600181600116156101000203166002900480156104155780601f106103ea57610100808354040283529160200191610415565b820191906000526020600020905b8154815290600101906020018083116103f857829003601f168201915b505050505081565b600081600560003373ffffffffffffffffffffffffffffffffffffffff1673ffffffffffffffffffffffffffffffffffffffff16815260200190815260200160002060008573ffffffffffffffffffffffffffffffffffffffff1673ffffffffffffffffffffffffffffffffffffffff168152602001908152602001600020819055508273ffffffffffffffffffffffffffffffffffffffff163373ffffffffffffffffffffffffffffffffffffffff167f8c5be1e5ebec7d5bd14f71427d1e84f3dd0314c0f7b2291e5b200ac8c7c3b925846040518082815260200191505060405180910390a36001905092915050565b60025481565b6000838280600460008473ffffffffffffffffffffffffffffffffffffffff1673ffffffffffffffffffffffffffffffffffffffff1681526020019081526020016000205410156105ce576040517f08c379a00000000000000000000000000000000000000000000000000000000081526004018080602001828103825260148152602001807f496e73756666696369656e742062616c616e636500000000000000000000000081525060200191505060405180910390fd5b83600460008873ffffffffffffffffffffffffffffffffffffffff1673ffffffffffffffffffffffffffffffffffffffff1681526020019081526020016000206000828254039250508190555083600460008773ffffffffffffffffffffffffffffffffffffffff1673ffffffffffffffffffffffffffffffffffffffff1681526020019081526020016000206000828254019250508190555083600560003373ffffffffffffffffffffffffffffffffffffffff1673ffffffffffffffffffffffffffffffffffffffff16815260200190815260200160002060008873ffffffffffffffffffffffffffffffffffffffff1673ffffffffffffffffffffffffffffffffffffffff168152602001908152602001600020600082825403925050819055508473ffffffffffffffffffffffffffffffffffffffff168673ffffffffffffffffffffffffffffffffffffffff167fddf252ad1be2c89b69c2b068fc378daa952ba7f163c4a11628f55a4df523b3ef866040518082815260200191505060405180910390a36001925050509392505050565b600360009054906101000a900460ff1681565b60046020528060005260406000206000915090505481565b60018054600181600116156101000203166002900480601f0160208091040260200160405190810160405280929190818152602001828054600181600116156101000203166002900480156108255780601f106107fa57610100808354040283529160200191610825565b820191906000526020600020905b81548152906001019060200180831161080857829003601f168201915b505050505081565b6000338280600460008473ffffffffffffffffffffffffffffffffffffffff1673ffffffffffffffffffffffffffffffffffffffff1681526020019081526020016000205410156108e6576040517f08c379a00000000000000000000000000000000000000000000000000000000081526004018080602001828103825260148152602001807f496e73756666696369656e742062616c616e636500000000000000000000000081525060200191505060405180910390fd5b83600460003373ffffffffffffffffffffffffffffffffffffffff1673ffffffffffffffffffffffffffffffffffffffff1681526020019081526020016000206000828254039250508190555083600460008773ffffffffffffffffffffffffffffffffffffffff1673ffffffffffffffffffffffffffffffffffffffff168152602001908152602001600020600082825401925050819055508473ffffffffffffffffffffffffffffffffffffffff163373ffffffffffffffffffffffffffffffffffffffff167fddf252ad1be2c89b69c2b068fc378daa952ba7f163c4a11628f55a4df523b3ef866040518082815260200191505060405180910390a36001925050509291505056fea265627a7a723158200c8b444b8e910a2819fa6504915db679f33d5c38562a4ece7f2418c8336ac57b64736f6c63430005110032",
  "source": "pragma solidity ^0.5.0;\n\ncontract Tether {\n    string public name = 'Mock Tether Token';\n    string public symbol = 'mUSDT';\n    uint256 public totalSupply = 1000000000000000000000000;\n    uint8 public decimals = 24;\n\n    event Transfer(\n        address indexed from,\n        address indexed to,\n        uint256 value\n    );\n\n    event Approval(\n        address indexed owner,\n        address indexed spender,\n        uint256 value\n    );\n\n    mapping(address => uint256) public balanceOf;\n    mapping(address => mapping(address => uint256)) allowance;\n\n    modifier checkIfAmountCanTransfer(address from, uint256 amount) {\n        require(balanceOf[from] >= amount, \"Insufficient balance\"); _;\n    }\n\n    modifier checkIfHaveAllowance(address from, uint256 amount) {\n        require(allowance[msg.sender][from] >= amount, \"Don't have allowance for this transfer\"); _;\n    }\n\n    constructor () public {\n        balanceOf[msg.sender] = totalSupply;\n    }\n\n    function approve(address spender, uint256 value) public returns(bool success) {\n        allowance[msg.sender][spender] = value;\n\n        emit Approval(msg.sender, spender, value);\n\n        return true;\n    }\n\n    function transfer(address to, uint256 value) public checkIfAmountCanTransfer(msg.sender, value) returns(bool success) {\n        balanceOf[msg.sender] -= value;\n        balanceOf[to] += value;\n\n        emit Transfer(msg.sender, to, value);\n\n        return true;\n    }\n\n    function transferFrom(address from, address to, uint256 value) public checkIfAmountCanTransfer(from, value) returns(bool success) {\n        balanceOf[from] -= value;\n        balanceOf[to] += value;\n        allowance[msg.sender][from] -= value;\n        emit Transfer(from, to, value);\n\n        return true;\n    }\n}\n\n",
  "sourcePath": "/Users/hassan-mehmood/HassanSpace/Blockchain learning/Create Blockchain with javascript/defi-staking-app-starter/src/contracts/Tether.sol",
  "compiler": {
    "name": "solc",
    "version": "0.5.17+commit.d19bba13.Emscripten.clang"
  },
  "schemaVersion": "3.4.14",
  "updatedAt": "2023-07-24T10:52:58.732Z",
  "networkType": "ethereum",
  "devdoc": {
    "methods": {}
  },
  "userdoc": {
    "methods": {}
  }
}